{
  "contractName": "TodoListContract",
  "abi": [
    {
      "inputs": [],
      "name": "getTodoList",
      "outputs": [
        {
          "components": [
            {
              "internalType": "string",
              "name": "name",
              "type": "string"
            },
            {
              "internalType": "bool",
              "name": "ifCompleted",
              "type": "bool"
            }
          ],
          "internalType": "struct TodoListContract.Todo[]",
          "name": "",
          "type": "tuple[]"
        }
      ],
      "stateMutability": "view",
      "type": "function",
      "constant": true
    },
    {
      "inputs": [
        {
          "internalType": "string",
          "name": "name",
          "type": "string"
        }
      ],
      "name": "addTodo",
      "outputs": [],
      "stateMutability": "nonpayable",
      "type": "function"
    }
  ],
  "bytecode": "0x608060405234801561001057600080fd5b5061071f806100206000396000f3fe608060405234801561001057600080fd5b50600436106100365760003560e01c80630c7a16be1461003b57806395ffebf514610059575b600080fd5b610043610075565b60405161005091906104d4565b60405180910390f35b610073600480360381019061006e919061063f565b6101bd565b005b60606000803373ffffffffffffffffffffffffffffffffffffffff1673ffffffffffffffffffffffffffffffffffffffff168152602001908152602001600020805480602002602001604051908101604052809291908181526020016000905b828210156101b45783829060005260206000209060020201604051806040016040529081600082018054610108906106b7565b80601f0160208091040260200160405190810160405280929190818152602001828054610134906106b7565b80156101815780601f1061015657610100808354040283529160200191610181565b820191906000526020600020905b81548152906001019060200180831161016457829003601f168201915b505050505081526020016001820160009054906101000a900460ff161515151581525050815260200190600101906100d5565b50505050905090565b6000803373ffffffffffffffffffffffffffffffffffffffff1673ffffffffffffffffffffffffffffffffffffffff1681526020019081526020016000206040518060400160405280838152602001600015158152509080600181540180825580915050600190039060005260206000209060020201600090919091909150600082015181600001908051906020019061025892919061027e565b5060208201518160010160006101000a81548160ff021916908315150217905550505050565b82805461028a906106b7565b90600052602060002090601f0160209004810192826102ac57600085556102f3565b82601f106102c557805160ff19168380011785556102f3565b828001600101855582156102f3579182015b828111156102f25782518255916020019190600101906102d7565b5b5090506103009190610304565b5090565b5b8082111561031d576000816000905550600101610305565b5090565b600081519050919050565b600082825260208201905092915050565b6000819050602082019050919050565b600081519050919050565b600082825260208201905092915050565b60005b8381101561038757808201518184015260208101905061036c565b83811115610396576000848401525b50505050565b6000601f19601f8301169050919050565b60006103b88261034d565b6103c28185610358565b93506103d2818560208601610369565b6103db8161039c565b840191505092915050565b60008115159050919050565b6103fb816103e6565b82525050565b6000604083016000830151848203600086015261041e82826103ad565b915050602083015161043360208601826103f2565b508091505092915050565b600061044a8383610401565b905092915050565b6000602082019050919050565b600061046a82610321565b610474818561032c565b9350836020820285016104868561033d565b8060005b858110156104c257848403895281516104a3858261043e565b94506104ae83610452565b925060208a0199505060018101905061048a565b50829750879550505050505092915050565b600060208201905081810360008301526104ee818461045f565b905092915050565b6000604051905090565b600080fd5b600080fd5b600080fd5b600080fd5b7f4e487b7100000000000000000000000000000000000000000000000000000000600052604160045260246000fd5b61054c8261039c565b810181811067ffffffffffffffff8211171561056b5761056a610514565b5b80604052505050565b600061057e6104f6565b905061058a8282610543565b919050565b600067ffffffffffffffff8211156105aa576105a9610514565b5b6105b38261039c565b9050602081019050919050565b82818337600083830152505050565b60006105e26105dd8461058f565b610574565b9050828152602081018484840111156105fe576105fd61050f565b5b6106098482856105c0565b509392505050565b600082601f8301126106265761062561050a565b5b81356106368482602086016105cf565b91505092915050565b60006020828403121561065557610654610500565b5b600082013567ffffffffffffffff81111561067357610672610505565b5b61067f84828501610611565b91505092915050565b7f4e487b7100000000000000000000000000000000000000000000000000000000600052602260045260246000fd5b600060028204905060018216806106cf57607f821691505b602082108114156106e3576106e2610688565b5b5091905056fea2646970667358221220a5bad011a7f8fadd048acd6413a0e6e0bfd159a67d2aa18b25c4de2d91c0b07e64736f6c634300080c0033",
  "immutableReferences": {},
  "source": "// SPDX-License-Identifier: MIT\npragma solidity ^0.8.0;\n\ncontract TodoListContract {\n\n    struct Todo {\n        string name;\n        bool ifCompleted;\n    }\n\n    mapping(address => Todo[]) private dataStorage;\n\n    function getTodoList() view public returns (Todo[] memory){\n        return dataStorage[msg.sender];\n    }\n\n    function addTodo(string memory name) public {\n        dataStorage[msg.sender].push(Todo(name, false));\n    }\n}\n",
  "sourcePath": "/Users/kmmn/IdeaProjects/blockchain/deploy-contracts/contracts/TodoListContract.sol",
  "compiler": {
    "name": "solc",
    "version": "0.8.12+commit.f00d7308.Emscripten.clang"
  },
  "schemaVersion": "3.4.14",
  "updatedAt": "2023-08-18T02:42:58.121Z",
  "networkType": "ethereum",
  "devdoc": {
    "kind": "dev",
    "methods": {},
    "version": 1
  },
  "userdoc": {
    "kind": "user",
    "methods": {},
    "version": 1
  }
}